:100000000C945D000C9485000C9485000C94A71052
:100010000C94A7100C94A7100C9485000C948500E8
:100020000C9485000C9485000C9485000C94D011E0
:100030000C9485000C9485000C9485000C9485002C
:100040000C9405100C9485000C9475100C944F10B2
:100050000C9485000C9485000C9485000C9485000C
:100060000C94B1100C9485000000000024002700BF
:100070002A0000000000250028002B0004040404CE
:100080000404040402020202020203030303030342
:10009000010204081020408001020408102001021F
:1000A00004081020000000080002010000030407FB
:1000B00000000000000000008C1211241FBECFEFD2
:1000C000D8E0DEBFCDBF11E0A0E0B1E0E8E3F2E3AD
:1000D00002C005900D92AE3FB107D9F725E0AEEF13
:1000E000B1E001C01D92AF32B207E1F710E0CDE5FB
:1000F000D0E004C02197FE010E94E017CC35D10763
:10010000C9F70E94A0130C941A190C940000862FB2
:10011000E091E002F091E102309711F0BA01099408
:100120000895862FE091DE02F091DF02309711F002
:10013000BA0109940895862FE091DC02F091DD0266
:10014000309711F0BA0109940895862FE091DA02F0
:10015000F091DB02309711F0BA0109940895862FCF
:10016000E091D802F091D902309711F0BA010994C8
:100170000895862FE091D602F091D702309711F0C2
:10018000BA01099408950895862F642FE091E20240
:10019000F091E302309711F0A90109940895E091DC
:1001A000E402F091E502309709F009940895CF93A5
:1001B000DF93FC01A081B181109701F1EC01ED9179
:1001C000FC9111970190F081E02D69EFCD01099527
:1001D00088819981DC01ED91FC910190F081E02D05
:1001E00062E0099588819981DC01ED91FC91019093
:1001F000F081E02D65E0DF91CF910994DF91CF91FF
:100200000895A0918E04B0918F04ED91FC91119707
:100210000190F081E02D682FCD0109941F93CF93B9
:10022000DF93182FEB0180915504909156046817C5
:10023000790760F48091530490915404C80FD91F3A
:10024000188380E0DF91CF911F910895E09182049F
:10025000F0918304309711F481E0F4CF81E0809332
:10026000520480916E0490916F0409958091550419
:1002700090915604C817D90778F7DCCFCF93DF9356
:10028000EC01FB0130E020E0C901880F991F8C17B9
:100290009D0778F44081DB014D93BD011197918159
:1002A000979599279795942B9C932F5F3F4F329664
:1002B000EBCFC901DF91CF91089590E0FC01EC559F
:1002C000FF4F2491FC01E057FF4F3491FC01E458AB
:1002D000FF4FE491EE23C9F0222339F0233001F1DE
:1002E000A8F4213019F1223029F1F0E0EE0FFF1FC0
:1002F000EE58FF4FA591B4918FB7F894EC9161112E
:1003000026C030953E233C938FBF08952730A9F037
:100310002830C9F0243049F7809180008F7D03C0D8
:10032000809180008F7780938000DFCF84B58F77B6
:1003300084BDDBCF84B58F7DFBCF8091B0008F77FC
:100340008093B000D2CF8091B0008F7DF9CF3E2B4B
:10035000DACFCF93DF9390E0FC01E057FF4F249179
:1003600084589F4FFC0184918823C9F090E0880F46
:10037000991FFC01E859FF4FA591B491FC01EE587B
:10038000FF4FC591D49161110DC09FB7F8948C9126
:10039000209582238C938881282328839FBFDF9117
:1003A000CF910895623051F49FB7F8943C91822F19
:1003B000809583238C93E8812E2BEFCF8FB7F89411
:1003C000EC912E2B2C938FBFEACF8E3008F08E50FD
:1003D0008770806480937C0080917A008064809331
:1003E0007A0080917A0086FDFCCF80917800909110
:1003F000790008953FB7F89480911F0390912003EE
:10040000A0912103B091220326B5A89B05C02F3FE0
:1004100019F00196A11DB11D3FBFBA2FA92F982F2A
:100420008827BC01CD01620F711D811D911D42E025
:10043000660F771F881F991F4A95D1F708958F92ED
:100440009F92AF92BF92CF92DF92EF92FF926B0199
:100450007C010E94FA014B015C01C114D104E1044A
:10046000F104B9F00E94FA01681979098A099B0917
:10047000683E73408105910580F321E0C21AD108DE
:10048000E108F10888EE880E83E0981EA11CB11CDB
:10049000E4CFFF90EF90DF90CF90BF90AF909F9010
:1004A0008F900895009721F0805C9F4F0C94D700A7
:1004B0000895AF92BF92CF92DF92EF92FF920F9387
:1004C0001F93CF93DF936C017B018B01040F151FEA
:1004D000EB015E01AE18BF08C017D10759F0699152
:1004E000D601ED91FC910190F081E02DC6010995B6
:1004F000892B79F7C501DF91CF911F910F91FF9063
:10050000EF90DF90CF90BF90AF900895FC01538D96
:10051000448D252F30E0842F90E0821B930B5417DD
:1005200010F0CF96089501970895FC01918D828D6A
:10053000981761F0A28DAE0FBF2FB11D5D968C9103
:10054000928D9F5F9F73928F90E008958FEF9FEF42
:100550000895FC01918D828D981731F0828DE80FFE
:10056000F11D858D90E008958FEF9FEF0895FC01B8
:10057000918D228D892F90E0805C9F4F821B910985
:100580008F739927089583E793E00E94B70221E0D3
:10059000892B09F420E0822F089580E090E0892BD8
:1005A00029F00E94C30281110C9400000895FC01FF
:1005B000A48DA80FB92FB11DA35ABF4F2C91848DC4
:1005C00090E001968F739927848FA689B7892C9321
:1005D000A089B1898C91837080648C93938D848D74
:1005E000981306C00288F389E02D80818F7D808377
:1005F0000895EF92FF920F931F93CF93DF93EC0137
:1006000081E0888F9B8D8C8D98131AC0E889F989B9
:10061000808185FF15C09FB7F894EE89FF896083BC
:10062000E889F98980818370806480839FBF81E03D
:1006300090E0DF91CF911F910F91FF90EF9008957F
:10064000F62E0B8D10E00F5F1F4F0F731127E02E5A
:100650008C8D8E110CC00FB607FCFACFE889F98992
:10066000808185FFF5CFCE010E94D702F1CFEB8DBF
:10067000EC0FFD2FF11DE35AFF4FF0829FB7F89466
:100680000B8FEA89FB8980818062CFCFCF93DF9384
:10069000EC01888D8823B9F0AA89BB89E889F9899A
:1006A0008C9185FD03C0808186FD0DC00FB607FCCF
:1006B000F7CF8C9185FFF2CF808185FFEDCFCE0102
:1006C0000E94D702E9CFDF91CF9108955F926F9298
:1006D0007F928F929F92AF92BF92CF92DF92EF92D2
:1006E000FF920F931F93CF93DF935C016901DA01AF
:1006F0005C90232B19F4CC24CA94DC2C8A013A0197
:10070000660E771ED0E0C0E0F12CE12C87E0882E49
:10071000912CF50180819181D8016C910C2E01C042
:10072000660F0A94EAF765296F77DC01ED91FC9179
:100730000190F081E02D0995BFEFEB1AFB0AF8015B
:10074000608170E0C4018C1B9D0B02C0759567959C
:100750008A95E2F7562E2196C730D10558F1CE146E
:10076000DF0441F1D5018D919C91652D6F77DC01FE
:10077000ED91FC910190F081E02D0995BFEFEB1A0E
:10078000FB0A551C5524551C2797E6CFEC14FD0495
:1007900008F4BFCFDF91CF911F910F91FF90EF90A1
:1007A000DF90CF90BF90AF909F908F907F906F9091
:1007B0005F9008950F5F1F4F6016710639F72097FD
:1007C00049F3EC14FD0430F7F5018081918161E07B
:1007D00070E001C0660FCA95EAF761506521DC013F
:1007E000ED91FC910190F081E02DDF91CF911F916F
:1007F0000F91FF90EF90DF90CF90BF90AF909F90C0
:100800008F907F906F905F9009941F93CF93DF93A9
:1008100000D0CDB7DEB7182F7A836983809150045A
:10082000909151040097C9F0DC01ED91FC91019089
:10083000F081E02D1031B8F461157044A0F4612FFF
:10084000606E099522E030E0AE014F5F5F4F62E0DD
:1008500070E080E594E00E9466030F900F90DF91B6
:10086000CF911F91089560EF099580915004909168
:100870005104DC01ED91FC910190F081E02D6FE6D7
:1008800009958091500490915104DC01ED91FC9107
:100890000190F081E02D612F099522E030E0AE015A
:1008A0004F5F5F4F62E070E080E594E00E94660376
:1008B0008091500490915104DC01ED91FC910190E4
:1008C000F081E02D67EF0995C8CFEF92FF920F936B
:1008D0001F93CF93DF93C82F8091500490915104C0
:1008E0000097C9F17A018B01DC01ED91FC91019037
:1008F000F081E02D60EF09958091500490915104B2
:10090000DC01ED91FC910190F081E02D6C2F0995B7
:10091000E7010E0D1F1DC017D10759F030E020E090
:10092000AE0161E070E080E594E00E9466032196EC
:10093000F2CF8091500490915104DC01ED91FC9133
:100940000190F081E02D67EFDF91CF911F910F9122
:10095000FF90EF900994DF91CF911F910F91FF903D
:10096000EF900895CF92DF92EF92FF920F931F9333
:10097000CF93DF93FC01E058FF4FE080EE2009F4B5
:100980005CC0EC01C05CDF4FA881B981109709F40D
:1009900054C0FC01EF57FF4FC080D180F601118198
:1009A0000081ED91FC9111970190F081E02D60EFB5
:1009B000CD01099588819981DC01ED91FC9101902F
:1009C000F081E02D69E7099588819981DC01ED913D
:1009D000FC910190F081E02D602F0995888199812B
:1009E000DC01ED91FC910190F081E02D612F0995E2
:1009F000F12C01E010E00F5F1F4FE016F10659F0F7
:100A000030E020E0A601400F511F61E070E0CE0110
:100A10000E946603F0CF88819981DC01ED91FC9101
:100A20000190F081E02D67EFDF91CF911F910F9141
:100A3000FF90EF90DF90CF900994DF91CF911F91BD
:100A40000F91FF90EF90DF90CF900895009711F0F5
:100A50000C94B20408952091AF02260F3327331F60
:100A600021323105ECF420914903FC0190E080E053
:100A7000243069F082E00895A091AF022191AC0189
:100A800043575D4FA40FB52FB11D2C9301968617C8
:100A900098F38091AF02680F6093AF0280E00895F1
:100AA00081E008951092490381E0809348031092F9
:100AB000230361E082E10E945D0161E083E10E9425
:100AC0005D01E9EBF0E080818E7F808380818D7F06
:100AD000808388E48093B80085E48093BC00089507
:100AE000CF93DF9391E090938C028823B9F0C0916B
:100AF000B800D091BA008091BC008A7B8093BC0082
:100B000060E082E10E945D0160E083E10E945D019E
:100B10000E945205D093BA00C093B800DF91CF91E4
:100B200008958F929F92AF92BF92CF92DF92EF92F1
:100B3000FF920F931F93CF93DF93D0917203D13223
:100B400008F0D7C0182FC09171030E94FA016B0101
:100B50007C018091490381116BC082E0809349033D
:100B6000109348038FEF8093470310924603D0936E
:100B70004503A1E5B3E0E5E2F3E080E0D81391C0DE
:100B80001092240380912403CC0FC82BC09324031C
:100B900080912303813009F088C0109223030E94C2
:100BA000FA016B017C01809124038093BB0080914A
:100BB0004B0390914C03A0914D03B0914E03892BB0
:100BC0008A2B8B2BA1F00E94FA0100914B0310910C
:100BD0004C0320914D0330914E036C197D098E0911
:100BE0009F09061717072807390708F442C08091A4
:100BF000BC0083FDD8CF85EC8093BC000E94FA0135
:100C00006B017C0180914903823009F450C08091CE
:100C100047038F3F09F46FC080914703803209F486
:100C20006CC080914703803309F469C084E026C01A
:100C300080914B0390914C03A0914D03B0914E03D2
:100C4000892B8A2B8B2B09F484CF0E94FA01809088
:100C50004B0390904C03A0904D03B0904E036C1941
:100C60007D098E099F0986169706A806B90608F021
:100C700070CF80914A030E94700585E01092500366
:100C80001092720310924F03DF91CF911F910F9139
:100C9000FF90EF90DF90CF90BF90AF909F908F909C
:100CA00008959D9191938F5F69CF85EEA5CF809137
:100CB0004B0390914C03A0914D03B0914E03892BAF
:100CC0008A2B8B2B09F49ECF0E94FA0100914B03D3
:100CD00010914C0320914D0330914E036C197D0906
:100CE0008E099F09061717072807390708F08ACFCA
:100CF000C0CF81E0C3CF80E0C1CF82E0BFCF83E02F
:100D0000BDCF089508950895E0918B0280918A02E5
:100D1000E81730F4F0E0E659FD4F808190E0089547
:100D20008FEF9FEF089590918B0280918A022FEFB1
:100D30003FEF981748F4E92FF0E0E659FD4F208186
:100D400030E09F5F90938B02C901089580918A02E1
:100D500090918B02891B990B0895CF92DF92EF92AD
:100D6000FF920F931F93CF93DF937C01CB018A01F6
:100D700020914F03222389F0EB016B01C40ED51E95
:100D8000CC15DD0569F06991D701ED91FC910190D9
:100D9000F081E02DC7010995F3CF642F0E942B0548
:100DA000C801DF91CF911F910F91FF90EF90DF90DD
:100DB000CF900895CF93DF931F92CDB7DEB76983AD
:100DC00020914F032223F9F020917203203258F032
:100DD00021E030E0FC013383228390E080E00F903B
:100DE000DF91CF91089580915003E82FF0E0EF5A02
:100DF000FC4F998190838F5F80935003809372039F
:100E000081E090E0ECCF61E0CE0101960E942B05DD
:100E1000F7CF90E080E00895DF92EF92FF920F937A
:100E20001F93CF93DF93EC01D62E7A01890188813D
:100E30008C3008F067C061E08D2D0E94A901888187
:100E4000282F30E0F901EE0FFF1FE20FF31FEE51E4
:100E5000FB4F9D2D9F736081607C692B608320E236
:100E600032E02E193F0937FF02C02D5F3F4F359505
:100E7000279535952795298320E639E0201B310BEE
:100E800037FF02C02D5F3F4F359527953595279544
:100E90002A832CE0622F0E94D417829FB001112474
:100EA00030E020E0AB01420F531FFA01EE0FFF1FAD
:100EB000E40FF51FEE51FB4F908196FD16C02F5F9A
:100EC0003F4F2C30310571F781110FC01092800017
:100ED00082E0809381001092850010928400B19A84
:100EE00080916F00826080936F00E8818E2F90E088
:100EF000FC01EE0FFF1FE80FF91FEE51FB4F808141
:100F0000806480838881DF91CF911F910F91FF9042
:100F1000EF90DF900895CF938830B0F421E030E077
:100F2000082E02C0220F331F0A94E2F740911403E7
:100F300050911503672B51F42095309524233523C8
:100F40003093150320931403CF910895242B352B50
:100F50003093150320931403909168029111F4CFFC
:100F6000C82F0E94E501BC018C2FCF910C94050481
:100F70005F926F927F928F929F92AF92BF92CF9229
:100F8000DF92EF92FF920F931F93CF93DF93833003
:100F900008F061C0D1E0D80FDD0FDD0FDD0F5D2E51
:100FA000D73110F046E1542EC62F082FD8508D2E81
:100FB000912CC401880F991F9C01205F3B4F590160
:100FC000D12CC12C10E077247394D515C8F58EEF81
:100FD0008D0F8231F8F4F601E80DF91DED56FB4F47
:100FE00090819230B8F48C2F87216624639481110C
:100FF00001C0612C7601EE0CFF1C913089F4172999
:1010000039E9E30EF11CF501EE0DFF1D862D90E090
:1010100091838083770CDF5F8FEFC81AD80AD5CF12
:10102000882371F3F701E756FF4FEA0DFB1D80811E
:101030009181019729F362E08D2F0E94A901E0CFF1
:10104000011119C0F8948BB16C2F68276C7F612354
:1010500068276BB97894DF91CF911F910F91FF9022
:10106000EF90DF90CF90BF90AF909F908F907F9048
:101070006F905F9008950130D1F4C123F89495B139
:10108000812F8F73809589239C2F9F73892B85B91E
:1010900088B1612F62956695669563706095682347
:1010A000C295C695C695C370C62BC8B9D3CF1F705D
:1010B000F89498B1812F880F880F80958923C123D8
:1010C000CC0FCC0FC82BF1CF8F929F92AF92BF92D3
:1010D000CF92DF92EF92FF920F931F93CF93DF9304
:1010E000EB01863108F098C0082F10E0F801ED56AA
:1010F000FB4F9081933009F49CC0943009F08CC070
:101100008250823108F081C0F801E25BFD4FC0805F
:10111000D12C7601EE0CFF1C4B01603282E0780787
:101120000CF03EC0F701EC0DFD1DE95FFA4F818127
:10113000A8E88A2E912C881A910887FD9394880C30
:10114000991C880C991C092C000CAA08BB088281E8
:1011500028E532E0281B310987FD3395220F331F24
:10116000220F331F032E000C440B550B281939098D
:101170004A095B09DB01653B710514F0A4EBB0E0A3
:10118000B7FF02C0B0E0A0E00E949B1724EB30E064
:1011900040E050E00E947117820E931EA41EB51EFF
:1011A000F701EC0DFD1DE95FFA4F20812C3068F549
:1011B000318188E890E0831B910937FD9395880F72
:1011C000991F880F991F881699067CF0328188E54F
:1011D00092E0831B910937FD9395880F991F880F23
:1011E000991F881699060CF4C4010297880F991F5D
:1011F0004FB7F89430E0F901EE0FFF1FE20FF31F35
:10120000EE51FB4F928381834FBF000F111FF801F6
:10121000E755FB4FD183C083DF91CF911F910F9191
:10122000FF90EF90DF90CF90BF90AF909F908F9006
:1012300008957B01D82F833041F08BEF800F8230EF
:1012400020F087EF800F833058F461E08D2F0E94EB
:10125000A901E114F10461F460E08D2F0E945D01A9
:10126000000F111FF801E755FB4FF182E082D4CF48
:101270008FEFE816F10411F461E0EFCFF801EC55BF
:10128000FF4FE491E33021F148F4E130B9F0E2306E
:10129000D1F080E8E816F1047CF7DECFE73011F1F9
:1012A000E83041F1E430A9F78091800080628093BA
:1012B0008000F0928B00E0928A00D2CF84B58068E3
:1012C00084BDE7BCCDCF84B5806284BDE8BCC8CF07
:1012D00080918000806880938000F0928900E09285
:1012E0008800BECF8091B00080688093B000E0920B
:1012F000B300B6CF8091B00080628093B000E092DE
:10130000B400AECF9EEF980F923180F4E82FF0E05A
:10131000DF01AD56BB4F9C91913041F4EE0FFF1FA2
:10132000E755FB4F608371830C945D010895FF9234
:101330000F931F93CF93DF9300D0CDB7DEB7082F65
:1013400010E0F801EA51FD4F9081F62EF9220C5978
:101350001D4F411104C0F80190819F1511F12F2DEF
:1013600030E03A832983A0915004B0915104109742
:10137000B1F0682F6F706069ED91FC911197019049
:10138000F081E02DCD01099522E030E0AE014F5F04
:101390005F4F62E070E080E594E00E946603F80130
:1013A000F0820F900F90DF91CF911F910F91FF90DE
:1013B0000895833040F5282F30E0F901E751FD4FC3
:1013C0006083672B01F12A513D4FF9016081811142
:1013D00006C099B19C7F692341E00C949709813044
:1013E00049F493B126B19F73F0E42F9F900111242B
:1013F000922BF1CF26B130E035952795359527957D
:101400002F706223E9CF0895A82FB0E0A25BBD4FF3
:101410009C91292F30E0F901EE0FFF1FE20FF31F1F
:10142000E95FFA4FE0812E2F30E0F901EE0FFF1F48
:10143000E20FF31FEE51FB4F80818F7B8083809101
:101440004C02981308C0992319F0915090934C02C4
:101450008FEF8C9308958823D9F3E0914D02EF5FCD
:10146000E0934D02F0E0E350FE4F9083F1CFFC019A
:1014700001900020E9F73197BF01681B790BAC019F
:1014800081E70C946504CF93DF93DB0190914C02CC
:101490009C3078F530914D02682F70E0FB01E25BE3
:1014A000FD4F3323E1F0C32FD0E0C350DE4F8881DE
:1014B0008083315030934D02808123E0829FC001B0
:1014C0001124895F9A4F1A161B0674F41416150618
:1014D0005CF49A01AD01DF91CF910C940C079083DD
:1014E0009F5F90934C02E8CF20E639E040E252E063
:1014F000F2CF8DE291E0DF91CF910C94370A85ED28
:101500008093BC0080914B0390914C03A0914D03BC
:10151000B0914E030796A11DB11D23E0B695A79586
:10152000979587952A95D1F72091BC0024FD03C09B
:1015300010924903089540914B0350914C036091E0
:101540004D0370914E03452B462B472B69F30097B3
:10155000A105B10541F02AE22A95F1F700C00197F3
:10156000A109B109E1CF80914A030C9470059F92C3
:10157000AF92BF92CF92DF92EF92FF920F931F93A1
:10158000CF93DF93C82ED12CE601C05FDB4FFE0165
:10159000ED57FF4F90819F3709F49FC0963061F45B
:1015A00090916702992341F06630710529F01092FD
:1015B00067029FEF909300017B01182F0EEF080F39
:1015C000023108F564307105F1F0F601E25BFD4F80
:1015D00080818C30C0F490E0FC01EE0FFF1FE80F1B
:1015E000F91FE95FFA4FE0818E2F90E0FC01EE0FCA
:1015F000FF1FE80FF91FEE51FB4F808186FF03C0EC
:10160000812F0E94040A52EF952E910E87E08915D2
:1016100058F061E070E032E0E316F10411F070E0A0
:1016200060E0892D0E948B070231C8F4E12FE69516
:10163000E695E695F0E0EA51FD4F2081312F3770B5
:1016400081E090E001C0880F3A95EAF7E114F104D7
:1016500021F03BE0E316F10401F5822B8083560173
:10166000AA0CBB1CF501E755FB4F118210828CE0E0
:10167000E816F10408F0CBC0F701EF5BF44F0C94CF
:10168000E017610B8E0B500BA50BC40B070CFB0B6B
:10169000070C070C070C6D0B790B80958223DECFAE
:1016A00037E03915D0F0023120F460E0812F0E943C
:1016B000A901CD57DF4F88818F3779F082E0888389
:1016C0000CC0023150F460E0812F0E94A901CD5777
:1016D000DF4F88818F3709F01882DF91CF911F91FA
:1016E0000F91FF90EF90DF90CF90BF90AF909F90C1
:1016F0000895023190F762E0812F0E94A901CD5731
:10170000DF4F88818F3711F08BE08883F501E75533
:10171000FB4F81E090E091838083DFCF0231E8F6D8
:10172000FE01ED57FF4F8081833021F460E0812F6F
:101730000E945D0161E0812F0E94A901CD57DF4F1A
:1017400088818F3751F281E0BACF133049F08BEFA7
:10175000810F823028F087EF810F833008F0BDCFF2
:1017600061E0812F0E94A90161E0812F0E94A901FF
:1017700060E0812F0E945D01CD57DF4F88818F3758
:1017800009F4ABCF83E09BCF023108F0A6CFCD5751
:10179000DF4F88818F3711F084E08883F601E25BA8
:1017A000FD4F80818F3FA9F090E0FC01EE0FFF1FFD
:1017B000E80FF91FE95FFA4FE0818E2F90E0FC01FE
:1017C000EE0FFF1FE80FF91FEE51FB4F808186FDE2
:1017D00084CF4FEF5FEF6FEF7FEF812FDF91CF91DE
:1017E0001F910F91FF90EF90DF90CF90BF90AF903F
:1017F0009F900C94430A1251123008F06ECFCD57CF
:10180000DF4F88818F3709F468CF86E058CF81E4B5
:1018100091E0DF91CF911F910F91FF90EF90DF90BA
:10182000CF90BF90AF909F900C94370A0F931F9367
:10183000CF93DF9381E080936802809167028823D1
:1018400029F0109267028FEF809300011092E90255
:101850001092E602109264021092EA021092E702DD
:10186000109265021092EB021092E802109266024A
:101870000EE412E0C0E0DFEF82EF8C0F62E070E078
:10188000883030F08EEF8C0F823128F461E070E008
:101890008C2F0E94B70AF801D1938F01CF5FC63118
:1018A00059F7109215031092140310924D021092E2
:1018B0004C0210926802DF91CF911F910F91089511
:1018C0004F925F926F927F928F929F92AF92BF9250
:1018D000DF92EF92FF920F931F93CF93DF93D82E57
:1018E0008B01D42FC22F6F3F760709F490C081E09F
:1018F00080934F03D09271031092500310927203A1
:1019000086ED94E00E94DA068C2F0E94910580916A
:101910004A0290914B028230910538F0880F991F4E
:10192000880F991F05970197F1F70E94FA014B0163
:101930005C018091490381116CC0CD2FD13208F038
:10194000C0E281E080934903809348039FEF909326
:101950004703109246039C0F909345038093240302
:10196000909124038D2D880F892B809324038091DF
:101970002303813009F09EC0109223030E94FA01D4
:101980004B015C01809124038093BB0080914B0349
:1019900090914C03A0914D03B0914E03892B8A2B5B
:1019A0008B2BA1F00E94FA0140904B0350904C0306
:1019B00060904D0370904E03681979098A099B095C
:1019C000461657066806790608F444C08091BC00A4
:1019D00083FDD8CF85EC8093BC000E94FA014B01B7
:1019E0005C0180914903813009F466C0809146030F
:1019F0008C1710F4C0914603A5E2B3E0EAE6F2E0EA
:101A000080E08C1761F19D9191938F5FFACF00E098
:101A10008CCF80914B0390914C03A0914D03B091DA
:101A20004E03892B8A2B8B2B09F483CF0E94FA015A
:101A300040904B0350904C0360904D0370904E03C8
:101A4000681979098A099B094616570668067906B6
:101A500008F06FCF80914A030E947005C0E0109299
:101A60008B02C0938A02ED2EF12C8C2F90E0E816A9
:101A7000F9060CF043C082E591E00E94370AD0924B
:101A80000A0200930B020AE012E0C8018A50924059
:101A90008E159F05D4F50F5F1F4F90918A0280919C
:101AA0008B02981791F186ED94E00E949306F8015D
:101AB0008183EBCF85EE8FCF80914B0390914C03C8
:101AC000A0914D03B0914E03892B8A2B8B2B09F4E7
:101AD00088CF0E94FA0140904B0350904C036090D5
:101AE0004D0370904E03681979098A099B094616BF
:101AF00057066806790608F074CFACCF8E159F059F
:101B00000CF0BDCF8FE691E0B8CFDE5F6D2F70E0B7
:101B10004AE052E087E7DF91CF911F910F91FF904C
:101B2000EF90DF90BF90AF909F908F907F906F90DD
:101B30005F904F900C946504EF92FF920F931F9368
:101B4000CF93DF938956823108F033C0EA01162F14
:101B5000E82FF0E0E255F24F0C94E017F40FD90DA6
:101B60005B0FD90DB30FD90D390FDD0ED90DD90D7E
:101B7000D90DD90DD90DC00DD90DA10ED90D230F39
:101B8000998195FF0AC08BE891E0DF91CF911F9179
:101B90000F91FF90EF900C94370A888131E096FB0B
:101BA000222720F9232798719830D1F148F49923FE
:101BB000A9F0DF91CF911F910F91FF90EF900895C1
:101BC000903109F44CC09831A1F720910001121610
:101BD0000CF472C08FEF80930001EBCF30934F0372
:101BE00080937103109250031092720302E0011768
:101BF00078F4FE01E00FF11D618167956627679516
:101C00008081680F86ED94E00E94DA060E5FEFCFC8
:101C100081E00E94910583E191E00197F1F7C9CF3E
:101C20009A814B816630A1F430E8439FB0011124C2
:101C3000690F711D4D814795442747959C81490F38
:101C4000DF91CF911F910F91FF90EF900C94600C5A
:101C5000479544274795490F6FEF7FEFF1CFE0910C
:101C60000001E7301CF08BEA91E08FCF3A819B8135
:101C70006630D9F460E8969FA0011124430F511DEE
:101C80009D819795992797953C81930FEF5FE093FE
:101C9000000135E0E302F0011124E451FD4F80839F
:101CA000528341839383248384CF97959927979573
:101CB000930F4FEF5FEFEACF90E0622F022E000C00
:101CC000770B35E0492F50E06417750764F0349FB7
:101CD000F001359FF00D1124E451FD4F408148176C
:101CE00019F09F5FEFCF90E085E0492F50E0641737
:101CF00075071CF19830F8F4FA0131968E9FD001E7
:101D00008F9FB00D1124A451BD4F3C91849FF001D1
:101D1000859FF00D1124E451FD4F308311964D91B4
:101D20005C9112975283418313963C9113973383AE
:101D300014963C9134839F5FD8CF215020930001AB
:101D400038CF623078F0898160E8869F9001112455
:101D50008881820F932F911D009721F090934B0261
:101D600080934A0280916702811123CFC0E08EEEFA
:101D70008C0F823028F466E070E08C2F0E94B70A46
:101D8000CF5FC631A1F781E08093670210928B028A
:101D900010928A0210925003109272030E94520510
:101DA00081E896E09093AE028093AD0282E896E0DF
:101DB0009093B2028093B102FCCE653008F4F9CE64
:101DC00018818EEF810F823108F0F3CE0981EA800D
:101DD000FB80CC81E12FF0E0E25BFD4F80818C3015
:101DE000C0F490E0FC01EE0FFF1FE80FF91FE95F60
:101DF000FA4FE0818E2F90E0FC01EE0FFF1FE80FFD
:101E0000F91FEE51FB4F808186FF03C0812F0E9496
:101E1000040A80E8C89FA00111244F0D511D90E8CD
:101E2000E99EB0011124600F711D812F0E94430AA9
:101E300064E070E0812FDF91CF911F910F91FF90AF
:101E4000EF900C94B70A623008F4B3CE8981E0E8D1
:101E50008E9F900111248881820F932F911D0097EE
:101E600029F09093020180930101A3CE81E090E0DC
:101E7000F8CF623008F49DCE698170E0123091F0A5
:101E80008A81F0E88F9FC0011124682B792B1330D1
:101E900049F08B8190E090E4899F902D8827112450
:101EA000682B792B8881DF91CF911F910F91FF9043
:101EB000EF900C94640880EF0E9401018CE60E9470
:101EC0000101CEEF84EF8C0F883020F582E00E9474
:101ED00001018AE00E9401018DEF8C0F8230E0F059
:101EE00089EF8C0F8330F0F417C0C23158F780E0CF
:101EF0000E94010181E00E9401018BE00E9401012A
:101F000081E00E94010181E00E94010181E00E94C4
:101F10000101D8CFC13001F783E00E94010188E0C0
:101F20000E940101C23130F484E00E9401018EE080
:101F30000E94010180EF8C0F823030F486E00E9415
:101F4000010181E00E9401018FE70E940101CF5F42
:101F5000C43159F687EFDF91CF911F910F91FF9018
:101F6000EF900C940101662309F423CEC88180EF21
:101F70000E9401018EE60E9401018C2F0E94010146
:101F8000C63140F7D0E0FE01ED56FB4F80810E9444
:101F90000101CC0FDD1F8E0107551B4FF801808119
:101FA0008F770E940101F801808191819C01207846
:101FB000232B39F0880F892F881F990B8F770E9468
:101FC0000101C755DB4F888199819C012227307C14
:101FD000232B09F4BFCF990F880B990F982F881FD7
:101FE0008F770E940101B6CF80EF0E9401018AE63F
:101FF0000E940101C2EF8FE7C83008F48C2F0E94C5
:102000000101CF5FC830B9F7A5CF1F920F920FB66D
:102010000F9211242F933F938F939F93AF93BF936E
:1020200080911B0390911C03A0911D03B0911E038E
:1020300030911A0323E0230F2D3758F50196A11D87
:10204000B11D20931A0380931B0390931C03A0934C
:102050001D03B0931E0380911F0390912003A09154
:102060002103B09122030196A11DB11D80931F038E
:1020700090932003A0932103B0932203BF91AF91CB
:102080009F918F913F912F910F900FBE0F901F90B6
:10209000189526E8230F0296A11DB11DD2CF1F92DD
:1020A0000F920FB60F9211242F933F934F935F938C
:1020B0006F937F938F939F93AF93BF93EF93FF9310
:1020C00083E793E00E94D702FF91EF91BF91AF9118
:1020D0009F918F917F916F915F914F913F912F9140
:1020E0000F900FBE0F901F9018951F920F920FB672
:1020F0000F9211242F938F939F93EF93FF93E0916F
:102100008303F09184038081E0918903F0918A0335
:1021100082FD1BC0908180918C038F5F8F73209113
:102120008D03821741F0E0918C03F0E0ED58FC4FF5
:10213000958F80938C03FF91EF919F918F912F91B9
:102140000F900FBE0F901F9018958081F4CF1F92B3
:102150000F920FB60F9211240F900FBE0F901F9089
:1021600018951F920F920FB60F9211242F933F9341
:102170004F935F936F937F938F939F93AF93BF938F
:10218000EF93FF938091B900887F803609F44AC0AD
:10219000F0F5883209F4A7C018F5803109F49BC026
:1021A000B8F4882309F4F9C0883009F494C0FF9189
:1021B000EF91BF91AF919F918F917F916F915F91BF
:1021C0004F913F912F910F900FBE0F901F90189538
:1021D000883109F488C0803251F78093470314C0D6
:1021E000803409F49DC040F48033B9F38833F9F6A4
:1021F0008093470385ECB0C0803509F485C08835ED
:1022000009F496C0883499F60E947F0AD0CF8839A5
:1022100009F48CC038F5883729F050F4883611F06D
:10222000803729F683E0809349031092D30257C088
:10223000883809F47BC0803919F0803809F0B7CFAD
:102240008091D302803208F071C0E091D30281E026
:102250008E0F8093D3028091BB00F0E0ED54FD4FD0
:1022600080833DC0803B39F0E0F4803A09F479C0C6
:10227000883A09F09CCF84E0809349031092B00221
:102280001092AF02E091AD02F091AE0209958091FB
:10229000AF0281110FC081E08093AF0210928D02D6
:1022A00009C0803C09F4A6CF883C09F4A3CF883B41
:1022B00009F07DCFE091B00281E08E0F8093B002F3
:1022C000F0E0E357FD4F80818093BB009091B00216
:1022D0008091AF0229C0809124038093BB0085ECDC
:1022E0008093BC0064CF909146038091450398177A
:1022F00058F5E091460381E08E0F80934603F0E0AD
:10230000EB5DFC4F8081E9CFE091460381E08E0FC9
:10231000809346038091BB00F0E0EB5DFC4F80832F
:1023200090914603809145039817C8F285E8D8CF6D
:10233000E091460381E08E0F809346038091BB00BD
:10234000F0E0EB5DFC4F80838091480381115CCF0E
:1023500081E08093230384EA8093BC0010924903B8
:1023600026CF85EC8093BC00109249038091D30264
:10237000803230F4E091D302F0E0ED54FD4F108252
:102380006091D30270E0E091B102F091B20283EB70
:1023900092E009951092D3020ACF1092470334CFEE
:1023A0001F920F920FB60F9211242F933F934F93CA
:1023B0005F936F937F938F939F93AF93BF93CF93CD
:1023C000DF93EF93FF9380916902C0910605D0E0FF
:1023D00087FF24C0109285001092840080916902CA
:1023E0008F5F8093690280916902082E000C990B1F
:1023F0008C179D0724F4809169028C30C4F1809180
:10240000840090918500049680349C4908F47AC039
:102410008091840090918500049676C08091690235
:10242000082E000C990B8C179D07C4F6E0916902E9
:102430008E2FEE0F990BFC01EE0FFF1FE80FF91F17
:10244000EE51FB4F808186FFC9CFE09169028E2F4C
:10245000EE0F990BFC01EE0FFF1FE80FF91FEE5175
:10246000FB4F808160E08F730E945D01B7CF2091A8
:10247000840030918500E09169028E2FEE0F990B58
:10248000FC01EE0FFF1FE80FF91FEE51FB4F81819A
:102490009281820F931F9093890080938800E0912E
:1024A00069028E2FEE0F990BFC01EE0FFF1FE80F54
:1024B000F91FEE51FB4F808186FF11C0E091690248
:1024C0008E2FEE0F990BFC01EE0FFF1FE80FF91F87
:1024D000EE51FB4F808161E08F730E945D01FF919F
:1024E000EF91DF91CF91BF91AF919F918F917F91AC
:1024F0006F915F914F913F912F910F900FBE0F9071
:102500001F90189580E49CE990938900809388003F
:102510008FEF80936902E3CF1092760310927503D8
:1025200048EE53E060E070E0409377035093780307
:102530006093790370937A038DE091E09093740334
:102540008093730385EC90E09093800380937F03E6
:1025500084EC90E0909382038093810380EC90E080
:10256000909384038093830381EC90E0909386039F
:102570008093850382EC90E0909388038093870397
:1025800086EC90E090938A038093890310928C03E9
:1025900010928D0310928E0310928F0380E194E0CD
:1025A0001092510410925004909354048093530459
:1025B00020E430E0309356042093550410925704E1
:1025C0001092580410925A041092590410925B040D
:1025D00010925D0410925C0410925F0410925E04ED
:1025E00010926104109260041092630410926204CD
:1025F00010926504109264041092670410926604AD
:10260000109269041092680410926F0410926E0484
:10261000109271041092700410927304109272045C
:102620001092750410927404109283041092820424
:1026300010925204109290041092920410929104FD
:102640001092D50427E830E0309377042093760485
:1026500021E930E030937904209378042BE930E0CD
:1026600030937B0420937A0425EA30E030937D0494
:1026700020937C042FEA30E030937F0420937E0483
:1026800029EB30E0309381042093800423EC30E088
:10269000309385042093840424EC30E03093870445
:1026A0002093860426E235E0309389042093880441
:1026B00090936B0480936A0422E532E030938B049C
:1026C00020938A0490936D0480936C048FEC90E0C7
:1026D00090938D0480938C041092D9041092D804A6
:1026E0004093DA045093DB046093DC047093DD04C0
:1026F0008FE191E09093D7048093D604E7E0F5E072
:102700002FEF48EB5BE0809106058C30B8F491E048
:10271000980F90930605808390E0DC01AA0FBB1F01
:10272000A80FB91FAE51BB4F12965C934E931197F1
:10273000339685E0EB32F80731F708952083F8CF20
:10274000789484B5826084BD84B5816084BD85B58C
:10275000826085BD85B5816085BD80916E00816098
:1027600080936E001092810080918100826080933E
:102770008100809181008160809381008091800040
:102780008160809380008091B10084608093B1006B
:102790008091B00081608093B00080917A00846065
:1027A00080937A0080917A00826080937A00809191
:1027B0007A00816080937A0080917A0080688093AB
:1027C0007A001092C10085E1809390048091910479
:1027D000909192040E948218C0919004D0E0CE01A2
:1027E00001960E94E6179093920480939104FC0155
:1027F000EC0FFD1F108212E0DC011C9325E0119606
:102800002C93AE01425051096AEE71E002960E948B
:102810000B1984E698E09093E1028093E00288EB44
:1028200097E09093DF028093DE028BE897E090932D
:10283000DD028093DC0289ED99E09093DB028093C6
:10284000DA0287EB9AE09093D9028093D80282E86B
:1028500099E09093D7028093D6028CE99DE0909303
:10286000E3028093E20286E19CE09093E50280938C
:10287000E402E0918303F09184031083E0918303E9
:10288000F09184031082E0917F03F0918003108225
:10289000E0918103F091820380E1808310928B03A9
:1028A000E0918703F091880386E08083E0918503BF
:1028B000F0918603808180618083E0918503F091AF
:1028C0008603808188608083E0918503F091860390
:1028D000808180688083E0918503F0918603808108
:1028E0008F7D80838091D50481114FC061E08DE0A0
:1028F0000E94A90162ED70E080E090E00E941F025A
:1029000061E08DE00E945D0168E270E080E090E0AF
:102910000E941F0260E08DE00E945D0162ED70E0A8
:1029200080E090E00E941F0261E08DE00E945D0166
:1029300068E270E080E090E00E941F0260E08DE0BD
:102940000E945D016AEF70E080E090E00E941F024B
:10295000C5E062ED70E080E090E00E941F0261E05F
:102960008DE00E945D0168E270E080E090E00E94EE
:102970001F0260E08DE00E945D01C15051F76DE7DC
:1029800070E080E090E00E941F0283E793E0909364
:102990008F0480938E04909351048093500480E5BB
:1029A00094E00E94D70080E194E00E94B2040E946B
:1029B000160C25E0D22EC0E0D0E0CC24C39402E077
:1029C00010E0EE24E394F12C8091E902882349F091
:1029D00069B18091E60268236C7F40E080E00E944C
:1029E00097098091EA02882379F063B186B16F7309
:1029F000B0E48B9FC0011124682B8091E70268230B
:102A000040E081E00E9497098091EB02882359F011
:102A100066B18091E8028F7066956695682340E004
:102A200082E00E94970980918E0490918F04DC01CE
:102A3000ED91FC910084F185E02D0995892B09F435
:102A4000CEC180918E0490918F04DC01ED91FC91B8
:102A50000284F385E02D09959C018F3F980719F3B7
:102A6000982F80915B04882309F492C0973F09F066
:102A70007EC010925B04A0915304B09154046C91F9
:102A80006137C1F1693709F05CC0E0918804F091C9
:102A90008904309741F280915C0490915D04833009
:102AA000910560F430E020E050E040E070E060E04C
:102AB00080916A0490916B040995B5CFBD016D5F5B
:102AC0007F4F03970E943E01BC016D5F7F4F80E006
:102AD0000E940E01E0915304F09154049F012D5F78
:102AE0003F4F428150E0618170E0E0918804F091B5
:102AF0008904DECF8091840490918504892B09F4A8
:102B000092CFBD016F5F7F4F80915C0490915D0417
:102B100001970E943E01BC016F5F7F4F80E00E94E1
:102B20000E0160915304709154046F5F7F4FE091E8
:102B30008404F0918504809170049091710409954A
:102B400072CFE0918604F0918704309709F46BCF3F
:102B50009D012F5F3F4F40915C0450915D044150B7
:102B60005109809172049091730409955CCF609132
:102B70005C0470915D04822F0E940E0180915C04C0
:102B800090915D04019690935D0480935C044BCF1B
:102B90006091590470915A046115710509F4B1C02E
:102BA00027FDAFC06150710970935A0460935904B6
:102BB000822F0E940E018091590490915A04892B12
:102BC00009F031CF80915704882309F42CCF803D40
:102BD00009F483C040F4803949F1803C09F469C0AC
:102BE0001092570420CF843FE1F1853F09F44DC096
:102BF000803EB1F7E0917604F0917704309781F34D
:102C0000A0915304B09154044C9120E8429FC0011C
:102C1000112411964C91480F592F511D6091580461
:102C200080915E0490915F040995DACFE091780479
:102C3000F09179043097A1F2A0915304B09154041B
:102C40004C9120E8429FC001112411964C91480FED
:102C5000592F511D60915804809160049091610436
:102C6000E3CFE0917E04F0917F04309709F4B8CF70
:102C7000A0915304B09154044C9150E011966C9182
:102C80008091660490916704CFCFE0918004F09129
:102C90008104309709F4A4CFA0915304B091540457
:102CA0004C9150E011966C91809168049091690468
:102CB000BBCFE0917A04F0917B04309709F490CF78
:102CC000A0915304B09154044C9150E06091580489
:102CD0008091620490916304A7CFE0917C04F0910D
:102CE0007D04309709F47CCFA0915304B091540433
:102CF0004C9150E060915804809164049091650477
:102D000093CF903F30F4822F8F7080935804922F8E
:102D1000907F903FF1F190F4903CB1F150F49039F4
:102D200009F081CE10935A040093590490935704EC
:102D30007ACE903D49F1903EA9F375CE993F09F4C2
:102D400042C028F48CE0890F823060F36CCE9F3F44
:102D500009F069CE10925A04109259041092570447
:102D60001092580490E080E0209155043091560470
:102D700082179307A8F4E0915304F0915404E80FEC
:102D8000F91F10820196F0CFF0925A04E092590494
:102D9000CDCFC0925B0410925D0410925C0443CED0
:102DA00010925B0410925D0410925C04E0918C041C
:102DB000F0918D048091740490917504309709F41A
:102DC00032CE099530CEE0918A04F0918B04309791
:102DD00009F429CE80916C0490916D04F2CF8FB7E5
:102DE000F89480901B0390901C03A0901D03B0905A
:102DF0001E038FBF8091160390911703A0911803B3
:102E0000B0911903409101015091020170E060E01E
:102E1000881A990AAA0ABB0A481559056A057B054A
:102E200008F054C0840F951FA61FB71F8093160388
:102E300090931703A0931803B093190380E1882E91
:102E400084E0982E92EFB92E87E08B15C8F0F4013C
:102E5000ED57FF4F8081823099F480911403909157
:102E600015030B2C02C0959587950A94E2F780FF15
:102E700007C08B2D0E94E501BC018B2D0E9405042B
:102E8000B394AFEF8A1A9A0AB8E0BB12DDCF8091F3
:102E9000000187FD1BC0B12C2B2D30E0809100017B
:102EA000082E000C990B8217930784F0D29EF00134
:102EB000D39EF00D1124E451FD4F61817281248174
:102EC000438180810E94600CB394E6CF209709F47F
:102ED0007BCD0E94C302882309F476CD0E940000B6
:102EE00073CD052E97FB1EF400940E94881757FDA2
:102EF00007D00E94A31707FC03D04EF40C94881748
:102F000050954095309521953F4F4F4F5F4F089515
:102F100090958095709561957F4F8F4F9F4F089545
:102F20000E94C517A59F900DB49F900DA49F800D82
:102F3000911D11240895B7FF0C9490170E949017CB
:102F4000821B930B0895A1E21A2EAA1BBB1BFD0145
:102F50000DC0AA1FBB1FEE1FFF1FA217B307E40778
:102F6000F50720F0A21BB30BE40BF50B661F771FD0
:102F7000881F991F1A9469F76095709580959095B0
:102F80009B01AC01BD01CF010895A29FB001B39F89
:102F9000C001A39F700D811D1124911DB29F700D62
:102FA000811D1124911D0895991B79E004C0991F7A
:102FB000961708F0961B881F7A95C9F78095089593
:102FC000EE0FFF1F0590F491E02D09940F931F93CE
:102FD000CF93DF938230910510F482E090E0E0918E
:102FE0002D05F0912E0530E020E0B0E0A0E0309714
:102FF00099F42115310509F44AC0281B390B2430F6
:103000003105D8F58A819B816115710589F1FB0134
:1030100093838283FE0111C040815181028113811B
:1030200048175907E0F04817590799F4109761F0CD
:1030300012960C93129713961C933296CF01DF9140
:10304000CF911F910F91089500932D0510932E0598
:10305000F4CF2115310551F04217530738F0A9017B
:10306000DB019A01BD01DF01F801C1CFEF01F9CF0A
:1030700090932E0580932D05CDCFFE01E20FF31F17
:10308000819391932250310939832883D7CF20919E
:103090002B0530912C05232B41F420910501309113
:1030A000060130932C0520932B05209103013091CC
:1030B00004012115310541F42DB73EB740910701B8
:1030C00050910801241B350BE0912B05F0912C0544
:1030D000E217F307A0F42E1B3F0B2817390778F0EF
:1030E000AC014E5F5F4F2417350748F04E0F5F1F4E
:1030F00050932C0540932B05819391939FCFF0E043
:10310000E0E09CCFCF93DF930097E9F0FC0132978A
:1031100013821282A0912D05B0912E05ED0130E0B1
:1031200020E01097A1F420813181820F931F20911C
:103130002B0530912C052817390709F061C0F09351
:103140002C05E0932B05DF91CF910895EA01CE176E
:10315000DF07E8F54A815B819E0141155105B1F712
:10316000E901FB83EA8349915991C40FD51FEC17FC
:10317000FD0761F4808191810296840F951FE9011A
:1031800099838883828193819B838A83F0E0E0E046
:1031900012968D919C9113970097B9F52D913C91C2
:1031A0001197CD010296820F931F20912B0530912C
:1031B0002C052817390739F6309751F510922E054E
:1031C00010922D05B0932C05A0932B05BCCFD38373
:1031D000C28340815181840F951FC817D90761F4BC
:1031E0004E5F5F4F88819981480F591F51834083FB
:1031F0008A819B81938382832115310509F0B0CFA9
:10320000F0932E05E0932D059ECFFD01DC01C0CF8C
:1032100013821282D7CFFB01DC014150504048F0AD
:1032200001900D920020C9F701C01D9241505040FD
:08323000E0F70895F894FFCFC8
:10323800FF130000002F05800000000000F902596C
:103248000286024603B7029502A90200000000DACE
:1032580006AD0609078306A606930684064D61781F
:1032680020736572766F7320617474616368656436
:1032780000556E6B6E6F776E2070696E206D6F648F
:1032880065004932433A20546F6F206D616E792092
:10329800627974657320726563656976656400494F
:1032A80032433A20546F6F206665772062797465DF
:1032B800732072656365697665640031302D6269D3
:1032C800742061646472657373696E67206E6F74CD
:1032D80020737570706F7274656400746F6F206D01
:1032E800616E792071756572696573002F746D70F0
:1032F8002F4669726D6174612F4669726D617461E0
:103308002F6578616D706C65732F5374616E64619D
:1033180072644669726D6174612F5374616E646181
:0E33280072644669726D6174612E696E6F0089
:00000001FF
